S00C00006C6564732E7372656370
S11300000C9455000C9472000C9472000C947200C1
S11300100C9472000C9472000C9472000C94720094
S11300200C9472000C9472000C9472000C94720084
S11300300C9472000C94AB100C9472000C9472002B
S11300400C9472000C9472000C9472000C94720064
S11300500C9472000C9472000C9472000C94720054
S11300600C9472000C9472001E0125012C013301C2
S113007040014D015A016D01B001DD01E301FE01B2
S11300802C0237029E02DC02230362025202660241
S1130090560272025A026A025E026E02BA07D4075C
S11300A0E007F60711082C08500811241FBECFEFF3
S11300B0D8E0DEBFCDBF11E0A0E0B1E0E6E0F2E2BF
S11300C002C005900D92A836B107D9F724E0A8E63E
S11300D0B1E001C01D92A837B207E1F70E942E03D8
S11300E00C9401110C9400001092690189E0809332
S11300F06A0108951092690189E080936A01089564
S11301000E94D50C80936A01823099F028F48823E8
S113011041F0813051F00895833079F0883089F0CE
S1130120089581E080936901089582E080936901D4
S1130130089583E080936901089584E080936901C0
S1130140089586E080936901089580916901823061
S113015091F028F4882349F0813051F008958430D7
S113016091F068F0863091F008950E94800008951F
S11301700E94A707089580E00E949B01089581E0F2
S11301800E949B0108950E94B40508950E94D50021
S1130190089510926E011092700189E080937101AC
S11301A010926D0110926F0108950F931F93CF93D6
S11301B0DF93F89480917001882319F125C0212FD1
S11301C0402F6D2F8C2F0E94750BC15001C0C8E0C9
S11301D0C111F5CF80EF93E00E94300AF89483EFC9
S11301E091E00197F1F700C00000D15001C0D8E0C0
S11301F0D111EDCF125001C01FEF1230C0F70F5FC5
S113020001C000E00330C0F3DF91CF911F910F9143
S1130210089510928B01109277010895CF93C82FFF
S11302200E94490C8C2F90E0FC013197E830F105D5
S113023008F065C0EC5CFF4F0C94D8102FE140E04F
S113024063E080E00E94980B5AC02FE141E060E037
S113025083E00E94980B53C02FE142E066E083E004
S11302600E94980B4CC02FE142E063E086E00E94BC
S1130270980B2FE141E063E086E00E94980B3FC0B9
S11302802FE142E060E080E00E94980B2FE140E023
S113029060E080E00E94980B32C028E141E066E013
S11302A080E00E94980B28E140E066E080E00E9434
S11302B0980B25C020E241E060E086E00E94980BA4
S11302C027E040E060E086E00E94980B27E042E0EF
S11302D060E086E00E94980B12C02FE141E066E0E6
S11302E086E00E94980B2FE140E066E086E00E94E1
S11302F0980B2FE142E066E086E00E94980BCF91D4
S1130300089589E791E0909376018093750128E040
S11303100FC0E0917501F091760110822150809117
S11303207501909176010196909376018093750101
S11303302111EFCF0895CF93DF93C82F83E00E945C
S1130340A010811188C1E09177018E2F90E089304F
S1130350910508F080C1FC01E45CFF4F0C94D810B7
S113036010928B011092780110928C0110927201FC
S11303701092740189E080938D01109289010E948A
S11303808101CC2349F06FE082E00E94220C6FE1EE
S113039081E00E94220C08C06FE182E00E94220CDE
S11303A06FE181E00E94220C64EF71E083E00E941F
S11303B0731081E0809377014EC10E94490C82E062
S11303C08093770148C1CC2351F0C0918B01D0E0D8
S11303D081E00E94080EC758DE4F888309C0C0918F
S11303E08B01D0E080E00E94080EC758DE4F88835E
S11303F010928A0183E0809377012DC1E0918A01F4
S113040080918B018E1720F180918C01811116C08F
S1130410F0E0E758FE4F8081809373010E940E0143
S113042080918A018F5F80938A0164EF71E083E099
S11304300E94731081E080938C010DC10E94490CCD
S113044068EC70E083E00E94731010928C0103C189
S113045084E080937701FFC00E94490C68E873E14F
S113046084E00E94731085E080937701F4C00E94B9
S1130470D50C893019F481E0809372018091720166
S1130480882309F44FC00E94D50C80938D01CC239E
S113049061F190E08930910528F5FC01EB5BFF4F99
S11304A00C94D81081E0809389013CC082E0809351
S11304B0890138C083E08093890134C084E080934B
S11304C0890130C085E0809389012CC086E0809347
S11304D0890128C087E08093890124C088E0809343
S11304E0890120C0109289011DC0833069F018F47D
S11304F0813031F015C0853059F0873069F010C073
S113050081E0809389010EC082E0809389010AC052
S113051083E08093890106C084E08093890102C04E
S11305201092890180918901882321F0109272012F
S11305300E940E0186E0809377018DC084E00E94C2
S1130540A010811104C083E08093740131C08091B4
S11305508901811103C0109274012AC0909178011D
S1130560E92FF0E0E758FE4F2081821721F083E065
S1130570809374011DC020918B01921720F481E0B7
S11305808093740115C030E08C2F90E00196880FA1
S1130590991F880F991F880F991F019728173907EA
S11305A024F482E08093740103C084E08093740196
S11305B087E0809377014FC0809174018230F9F015
S11305C028F4882341F0813051F045C0833049F14B
S11305D0843081F140C085E0809377013CC068ECB1
S11305E070E083E00E947310109289018091780179
S11305F08F5F8093780184E0809377012CC068EC4E
S113060070E083E00E9473101092890110927801C7
S113061080918B018F5F80938B0182E080937701BF
S11306201AC081E00E942E0B0E94490C88E080933E
S1130630770111C00E94490C82E00E942E0B88E0D1
S11306408093770108C00E94260B882321F00E9422
S11306507A0010927701DF91CF91089510928E0164
S113066010928000E1E8F0E0108280818360808352
S113067086E09FEF9093850080938400EFE6F0E09E
S113068080818160808378940E9474000E945A085B
S11306900E94EF090E94170B0E942F100E945D0A0E
S11306A00E94AD0C0E94420C0E94DB0D0E94A60623
S11306B00E9409010E9498030E94C9000E94100E22
S11306C00E9482080E94F50A0E9441100E94440B75
S11306D00E94D80D80918E01823071F028F4882315
S11306E0B1F0813031F011C0833049F0843051F0E1
S11306F00CC00E94A70C0BC00E94111008C00E94DD
S1130700E80D05C00E94A50002C010928E018091E0
S113071084009091850085309F4FE0F280918E0196
S11307208F5F80938E01853058F210928E01C8CF6E
S11307308FE891E09093E2028093E1028AEC92E0E8
S11307409093E0028093DF021092D30230E090E0B5
S1130750EFE8F1E00CC088E0282F291B2383831BDA
S113076084839F5F983011F43F5F90E0359682E078
S1130770EA3CF80781F378F30895E091E102F091FF
S1130780E20204C010821282118235968091DF0247
S11307909091E0028E179F07A8F7089583E0809355
S11307A0D20283E090E09093DC028093DB0290938A
S11307B0D0028093CF02E6E1F2E0F093E602E09308
S11307C0E50282E08083E1E1F2E0F0931802E09335
S11307D017028083ECE0F2E0F0931302E09312023C
S11307E0808310920E0210920D02F093D802E093CF
S11307F0D702089582E00E94080E5091E1024091D0
S1130800E202E52FF42F2091DF023091E002E2179B
S1130810F30710F4359602C0E52FF42F908192303F
S113082009F081508111EFCF81E08083F093E402DD
S1130830E093E3028093D1028091D60288231CF4D2
S113084082508093D6020895833089F018F4813061
S113085031F00BC0853029F0873029F006C083E0E1
S1130860089581E0089584E0089585E0089582E084
S113087008956091CF027091D0022091DB023091F3
S1130880DC02F901EE0FFF1FEE0FFF1FE20FF31F53
S113089098E2969FA001979F500D1124E40FF51F35
S11308A0E157FE4F823031F118F48130A9F03EC097
S11308B0833019F0843069F139C061507109709343
S11308C0D0026093CF0277238CF587E090E0909379
S11308D0D0028093CF022AC02F5F3F4F3093DC02B7
S11308E02093DB02283031050CF11092DC021092C7
S11308F0DB021CC0215031093093DC022093DB025F
S11309003323A4F487E090E09093DC028093DB022D
S11309100DC06F5F7F4F7093D0026093CF02683039
S1130920710524F01092D0021092CF022091CF02D0
S11309303091D002A091DB02B091DC02CD01880F8E
S1130940991F880F991FA80FB91F48E2429FC00141
S1130950439F900D1124A80FB91FA157BE4FB09308
S1130960E602A093E5028C91813091F482E08C93AD
S1130970A091E502B091E6021296FC93EE931197D2
S11309808091D2028F5F8093D2021092D102089597
S1130990A091D702B091D8021C92A091D702B09135
S11309A0D80212961C921E921197A091E502B09162
S11309B0E6028C91823041F4F093E602E093E50282
S11309C081E08093D502089582E08C93A091E502A2
S11309D0B091E6021296FC93EE93119781E012C057
S11309E08F5F98130CC02091D7023091D8023093B6
S11309F0DE022093DD02F093D802E093D702018057
S1130A00F281E02D9091D202891750F3E091D70240
S1130A10F091D802128211820895EF92FF920F93FF
S1130A201F93CF93DF93EC01E12C0F2EFFE1FF2EF8
S1130A30F02D1C810B8188818130B9F018F082304F
S1130A4039F159C020E040E0602F812F0E94750BDE
S1130A5020E042E0602F812F0E94750B20E041E0EE
S1130A60602F812F0E94750B46C020E040E0602F6C
S1130A70812F0E94750B20E042E0602F812F0E949D
S1130A80750B2FE141E0602F812F0E94750B33C05D
S1130A902E2D40E0602F812F0E94750B2F2D42E0F8
S1130AA0602F812F0E94750B20E041E0602F812F81
S1130AB00E94750B87E08F1508F4FA9486E08E1572
S1130AC008F0E3948091D7029091D802C817D9070F
S1130AD091F427E042E0602F812F0E94750B27E0FC
S1130AE041E0602F812F0E94750B20E040E0602FD1
S1130AF0812F0E94750B0980DA81C02D209709F09F
S1130B0098CFDF91CF911F910F91FF90EF900895AF
S1130B10CF93DF93E091E502F091E6021082E09139
S1130B20E502F091E602C481D38120E040E06D2F1C
S1130B308C2F0E94750B20E042E06D2F8C2F0E94B9
S1130B40750B20E041E06D2F8C2F0E94750BE09116
S1130B50E502F091E602818192819093E60280930E
S1130B60E502DF91CF9108958091D302823009F498
S1130B7057C028F4882351F0813091F108958330CF
S1130B8009F48FC0843009F4B0C008950E94BD03F5
S1130B901092E4021092E3021092DE021092DD023F
S1130BA01092D5021092D4021092DA021092D90255
S1130BB08FEF8093D60262E181E00E94220C62E111
S1130BC082E00E94220C67E080E00E94220C68EC24
S1130BD070E083E00E94731081E08093D302089553
S1130BE083E00E94A0108111B0C00E94490C0E94B1
S1130BF0CE038091E5029091E6020E940D050E94C9
S1130C00FA038091E3029091E4020E940D0568E8E2
S1130C1073E185E00E94731082E08093D30208950B
S1130C200E94D50C80936A010E9424048093D4020C
S1130C30853071F19091DA02891751F19091D902BE
S1130C409230E9F028F4992341F09130E9F020C082
S1130C50933059F0943071F01BC08230C9F0809306
S1130C60DA0285E00E94911013C0843089F08093E9
S1130C70DA020EC0833061F08093DA0209C0813059
S1130C8039F08093DA0204C0823011F08093DA02E2
S1130C9085E00E94A010811158C083E08093D302A4
S1130CA008958091DA020E9439048091E5029091BE
S1130CB0E6020E940D058091D7029091D8020E940D
S1130CC00D058091DD029091DE020E940D05809158
S1130CD0DA028093D9026091D60270E085E00E9426
S1130CE0731084E08093D30208958091D5028130FB
S1130CF0E9F48091D202882391F085E00E94A0104B
S1130D00811123C00E9488058091D2028150809372
S1130D10D20262E370E085E00E947310089510929D
S1130D20D3020E94490C0E947A0008958091D10256
S1130D30811108C00E94FA038091E3029091E402B9
S1130D400E940D0582E08093D30208951092E70279
S1130D5089E08093EC020E94490C0895CF93C8E087
S1130D6031C022E041E063E08C2F0E94750B22E049
S1130D7042E063E08C2F0E94750B22E041E06C2F6F
S1130D8083E00E94750B22E042E06C2F83E00E9416
S1130D90750B22E041E066E08C2F0E94750B22E087
S1130DA042E066E08C2F0E94750B22E041E06C2F3C
S1130DB086E00E94750B22E042E06C2F86E00E94E0
S1130DC0750BC150C111CDCFCF9108958091EA0226
S1130DD090E0FC01EF5CFC4F2081222381F0FC01B8
S1130DE0EF5CFC4F3185332351F0FC01EF5CFC4F89
S1130DF03289332321F081E08093EB020895FC01D2
S1130E00E758FC4F3081332381F0FC01EE57FC4F4F
S1130E104081442351F0FC01E557FC4F40814423B9
S1130E2021F081E08093EB020895FC01EF53FC4F25
S1130E304081442381F0FC01E653FC4F508155234B
S1130E4051F0FC01ED52FC4F5081552321F081E01B
S1130E508093EB020895222341F0332331F044239D
S1130E6021F081E08093EB020895FC01EF5CFC4FDC
S1130E703185332381F0FC01EE57FC4F308133235D
S1130E8051F0FC01E653FC4F3081332321F081E023
S1130E908093EB020895FC01EF5CFC4F328933230D
S1130EA081F0FC01E557FC4F5081552351F0FC01C2
S1130EB0ED52FC4F5081552321F081E08093EB02E9
S1130EC00895222381F0FC01EE57FC4F2081222358
S1130ED051F0FC01ED52FC4F2081222321F081E0EE
S1130EE08093EB020895332361F0FC01EE57FC4F2D
S1130EF08081882331F0442321F081E08093EB0248
S1130F0008958091ED02883020F082E08093EB0216
S1130F1008951092EB020895893099F09BEA899F15
S1130F20912D11249695292F220F920F282F291BDA
S1130F30922F220F290F2093E802891B8093E90244
S1130F40089584E08093E8028093E90208950E9462
S1130F50D50C8093EC020E948C07E091E7028E2F5F
S1130F6090E08730910508F0A4C0FC01E25BFF4FDC
S1130F700C94D81084E08093E9028093E8021092E4
S1130F80EB021092ED0281E08093E70264EF71E0DE
S1130F9083E00E9473106FE180E00E94220C6FE1F5
S1130FA081E00E94220C089583E00E94A010811128
S1130FB007C00E94490C0E94AE0682E08093E702BB
S1130FC08091EC020E948C076091E8028091E90212
S1130FD00E944F0B892B09F06CC08091EC02893080
S1130FE009F467C083E08093E70208954091ED021D
S1130FF041704093EA022FE16091E8028091E90296
S11310000E94980B8091EA02882321F080E00E94DC
S1131010650E03C081E00E94650E84E08093E702C0
S113102008950E94E6068091EB02811109C0809127
S1131030ED028F5F8093ED0282E08093E7020895D2
S11310400E94260B8130A9F50E945D0E813089F53E
S113105085E08093E70208958091EB02813081F46A
S11310608091EA020E942E0B8091ED0280FF04C061
S113107083E00E94650E0BC082E00E94650E07C0EB
S1131080823029F40E942E0B84E00E94650E68EEE3
S113109073E083E00E94731086E08093E702089572
S11310A083E00E94A010811104C00E947A00109273
S11310B0E70208951092FA021092FC021092FB02C9
S11310C010927E0080E01BC0282F30E0F901EE0F63
S11310D0FF1FE251FD4F11821082F901EA5BFE4FBE
S11310E09081913059F4863048F4E8E7F0E0468185
S11310F0D901A05CBE4F9C91942B96838F5F863060
S113110018F308958091FA028230C1F128F48823FB
S113111051F0813019F16BC0833009F43FC0843041
S113112009F444C064C08091FD028F5F8093FD0286
S1131130863010F01092FD02E091FD02F0E0EA5BCF
S1131140FE4F8081813009F054C08093FA0282E31B
S113115090E09093FC028093FB0208958091FB023F
S11311609091FC02009731F001979093FC028093D8
S1131170FB02089582E08093FA020895E8E7F0E024
S113118094818091FD02892B848387E88283828104
S11311908064828383E08093FA02089580917A00C8
S11311A086FD27C084E08093FA02089580917C0034
S11311B085FF04C08091790090E002C080E090E057
S11311C020917C0025FD07C0E8E7F0E02081318113
S11311D080E0932F822BE091FD02F0E0EE0FFF1FE1
S11311E0E251FD4F918380831092FA020895109288
S11311F0FA020895E8E7F0E094819F77948394815C
S113120090649483823060F4811103C0948190626D
S11312109483813029F4E8E7F0E084818F7D84832E
S1131220623088F4611105C0E8E7F0E082818F7DC7
S11312308283613041F4E8E7F0E082818062828356
S11312408381887F83830895863048F4E82FF0E013
S1131250EE0FFF1FE251FD4F80819181089580E0E0
S113126090E0089570E0FB01EC5AFE4F2081FB01F1
S1131270E45BFE4F9081442379F04130E1F4E82FA0
S1131280F0E0EE0FFF1FE050FF4F0190F081E02DE2
S11312908181282B21830895E82FF0E0EE0FFF1FB2
S11312A0E050FF4F0190F081E02D818189238183FB
S11312B08281982B92830895813031F018F0823026
S11312C031F0089585B508958091810008956115E0
S11312D0710519F41092B10008956038710520F475
S11312E087E08093B10008956F3F710509F020F401
S11312F086E08093B1000895611582E0780720F4B8
S113130085E08093B1000895611584E0780720F4A6
S113131084E08093B1000895611580E1780720F49A
S113132083E08093B1000895772324F082E08093D2
S1131330B100089581E08093B1000895653608F006
S113134064E6823001F128F4882349F0813089F081
S11313500895843071F110F18530B1F108952FEFC3
S1131360629FC001112464E670E00E94C41067BD4E
S113137008952FEF629FC001112464E670E00E947B
S1131380C41068BD08952FEF629FC001112464E664
S113139070E00E94C4106093890008952FEF629F4B
S11313A0C001112464E670E00E94C41060938B00B5
S11313B008952FEF629FC001112464E670E00E943B
S11313C0C4106093B30008952FEF629FC0011124ED
S11313D064E670E00E94C4106093B40008958AB17A
S11313E088608AB98AB180648AB98AB180628AB90C
S11313F083E384BD88E085BD1092800081E38093FF
S1131400B00068EE73E082E00E945C0960E085E071
S11314100E949E09089541E061E082E00E94320941
S113142008958BB182608BB9000000008BB18D7F71
S11314308BB9000000000000000000000000000064
S113144008958BB182608BB9000000000000000099
S1131450000000008BB18D7F8BB90000000008955F
S11314600F931F93CF93DF93EC01F89400EC1DC00E
S11314708881212F30E02150310990E0A0E0B0E0D4
S113148004C0B695A795979587952A95D2F780FFBE
S113149003C00E94210A02C00E94110A115001C017
S11314A018E01111E5CF015021970111F9CF78947B
S11314B0DF91CF911F910F91089560E081E00E9428
S11314C0FA081092170385E08093FE0280E01AC0A8
S11314D0282F30E0F901EE59FE4F9081913089F4C4
S11314E0A901440F551FFA01E55FFC4F11821082D8
S11314F0FA01E25EFC4F11821082F901E85EFC4FB2
S113150010828F5F863020F30895CF93DF9380910C
S11315101703813019F0833031F05AC060E081E064
S11315200E94FA0855C0C091FE02D0E0FE01EE59B7
S1131530FE4F8081813009F042C0FE01E85EFC4F1D
S11315408081843030F5FE01E45AFE4F80810E9490
S11315502409CC0FDD1FC150DD4F99838883E091AE
S1131560FE02F0E0DF01AA0FBB1FED01C150DD4F09
S113157088819981A25EBC4F2D913C911197820F75
S1131580931F8D939C93E85EFC4F80818F5F8083D3
S113159016C0CE01880F991FFC01E25EFC4F20812A
S11315A031813695279536952795DC01A55FBC4F8B
S11315B02D933C9311821082C85EDC4F1882809177
S11315C0FE028F5F8093FE02863010F01092FE02BE
S11315D0809117038F5F80931703843018F081E0A4
S11315E080931703DF91CF9108950E94850A08958F
S11315F0863048F4E82FF0E0EE0FFF1FE55FFC4F64
S113160080819181089580E090E00895882329F0F5
S113161062E385E00E949E09089560E085E00E94EF
S11316209E090895BC0182E00E945C09089510920D
S11316302A0310922B03EEE6F0E08081826080831F
S11316408AB180628AB98BB11BB8089580912E0348
S1131650811102C081E0089580E0089590912E03E5
S1131660911111C0811103C01092F10309C081309E
S113167019F48093F10304C0823011F48093F103D0
S113168081E080932E03089580913003882331F004
S113169080EF93E00E94300A109230030895282FBF
S11316A030E070E0FB01EE0FFF1FE60FF71FB901FA
S11316B0660F771FDB01A20FB31FAA0FBB1FAA0F70
S11316C0BB1FAA0FBB1FAE0FBF1FAF5CBC4F129650
S11316D04C91129711968C91119790E0840F911D63
S11316E0FD012081820F911D0895E8E0F0E0DF0103
S11316F0A81BB109CD01E61BF109BF01660F771FD5
S1131700E60FF71FBD01660F771F860F971F880F1F
S1131710991F880F991F880F991FE80FF91FEF5C15
S1131720FC4FE40FF11D208381E080933003089582
S1131730CF92DF92EF92FF920F931F93CF93DF9399
S113174090E070E050E08B01000F111F7801E60E6D
S1131750F71E6C01CC0CDD1CD601A80FB91FAA0F13
S1131760BB1FAA0FBB1FAA0FBB1FAE0DBF1DAF5CD3
S1131770BC4FA40FB51F2C93DC011196ED01CC0FC7
S1131780DD1F8E010A0F1B1F000F111F000F111FF9
S1131790000F111F0E0D1F1D0F5C1C4F040F151F92
S11317A0F80120836F5F7F4F8B01000F111F600FC3
S11317B0711FF601E80FF91FEE0FFF1FEE0FFF1F59
S11317C0EE0FFF1FE60FF71FEF5CFC4FE40FF51F52
S11317D02083AC0FBD1FAA0FBB1FAA0FBB1FAA0FEC
S11317E0BB1FA60FB71FAF5CBC4FA40FB51F2C9334
S11317F081E080933003DF91CF911F910F91FF908F
S1131800EF90DF90CF90089590E08F5C9C4F909381
S11318102D0380932C0320E40FC0E0912C03F0915E
S11318202D036083215080912C0390912D03039606
S113183090932D0380932C032111EFCF81E08093AB
S1131840300308950E94040C089581E393E090937B
S11318502D0380932C0320E00FC0E0912C03F09122
S11318602D0310822F5F80912C0390912D030196FC
S113187090932D0380932C03203C78F381E0809394
S1131880300308950E94250C0E940B0A10922F0326
S113189008950E94250C089581E00E94A0108111F2
S11318A04FC080912E03833009F128F4813049F030
S11318B08230A1F040C0853061F118F18630A1F189
S11318C03AC00E94490C64EF71E081E00E947310F9
S11318D06FE18091F1030E94220C2DC064EF71E04E
S11318E081E00E9473100E94490C25C064EF71E0EE
S11318F081E00E9473106FE18091F1030E94220C39
S11319001AC064EF71E081E00E9473100E94490CD8
S113191012C064EF71E081E00E9473106FE1809166
S1131920F1030E94220C07C064EF71E081E00E9481
S113193073100E94490C80912E038F5F80932E03B5
S113194080912E03873010F010922E030895809119
S11319502E0381110E944C0C089589E08093F503B5
S113196081E08093FB038EEF93E09093F8038093E0
S1131970F7031092F60314C0E091F703F091F80313
S1131980118210828091F7039091F803029690934C
S1131990F8038093F7038091F6038F5F8093F60337
S11319A08091F603863040F308958091F5030895FD
S11319B0CF93DF93C091FB03C130D1F038F0C23034
S11319C009F47BC0C33009F49EC0EDC08EEF93E0F0
S11319D09093F8038093F70310920904109208047B
S11319E01092FD031092FC03CF5FC093FB03DDC094
S11319F080E00E94A010811128C0C091F603D0E0BD
S1131A0085E00E94F80ACC0FDD1FC250DC4F998399
S1131A1088838091F603E82FF0E0EE0FFF1FE25079
S1131A20FC4F208131814091FC035091FD03240F30
S1131A30351F3093FD032093FC038F5F8093F603DF
S1131A4061E070E080E00E9473108091F6038530BD
S1131A5008F4ABC08091FB038F5F8093FB03A5C0A8
S1131A60A091F703B091F803FD01819191919093B6
S1131A70F4038093F303F093F803E093F7031296CF
S1131A804D915C911397841B950B9093FA0380936B
S1131A90F903AC01992324F444275527481B590B17
S1131AA08091080490910904480F591F5093090428
S1131AB04093080421502093F6032091F60322302A
S1131AC078F621502093F60380910804909109043C
S1131AD00A978CF42091FC033091FD03ADECBCEC2F
S1131AE00E94DE1096958795969587959093F403BA
S1131AF08093F30304C01092F4031092F303CF5FB6
S1131B00C093FB0352C08091F3039091F40389398D
S1131B1023E0920720F082E08093F50340C08934EB
S1131B2023E0920720F081E08093F50338C08D3BD9
S1131B3022E0920718F01092F50331C0833622E0B8
S1131B40920720F085E08093F50329C08F3F21E0C0
S1131B50920720F084E08093F50321C0873821E0C8
S1131B60920720F083E08093F50319C0833221E0CB
S1131B70920720F088E08093F50311C08F3B910514
S1131B8020F087E08093F5030AC08536910520F0A4
S1131B9086E08093F50303C089E08093F503CF5F6B
S1131BA0C093FB0302C01092FB03DF91CF91089511
S1131BB00E94D80C089580E008C0E82FF0E0EE0FF2
S1131BC0FF1FE55FFB4F11828F5F8330B0F30895F1
S1131BD030E01BC0832F90E0FC01EE0FFF1FE55F98
S1131BE0FB4F21812F5F2183FC01E75FFE4F408182
S1131BF0421750F4FC01EA5FFE4F2081880F991FC1
S1131C00FC01E55FFB4F21833F5F333018F30895F8
S1131C10E82FF0E0EE0FFF1FE55FFB4F8181089591
S1131C20CF93DF93CDB7DEB7E4970FB6F894DEBF5A
S1131C300FBECDBF1092140485E08093110485E19A
S1131C4094E090931304809312048AE1ECE0F1E0B1
S1131C50DE01119601900D928A95E1F78AE1E6E2A0
S1131C60F1E0DE015B9601900D928A95E1F720E0A8
S1131C7030E0E5E1F4E016C03083822F90E0A1E08B
S1131C80B0E0AC0FBD1FA80FB91F4C914183ABE16D
S1131C90B0E0AC0FBD1FA80FB91F8C91828333969F
S1131CA03F5F2F5F2A3140F3E4960FB6F894DEBF0E
S1131CB00FBECDBFDF91CF9108958091140481119F
S1131CC002C081E0089580E008958093110481E0CA
S1131CD080931404089582E00E94A010811125C00D
S1131CE080911404813019F0823089F019C080E0A9
S1131CF098E00E94120B81E00E94060B68EC70E0F1
S1131D0082E00E94731082E080931404089580E0BE
S1131D100E94060B1092140485E080931104089528
S1131D201092140485E080931104089582E00E94C7
S1131D30A010811125C080911404813019F08230E3
S1131D4089F019C080E092E00E94120B81E00E94A9
S1131D50060B68EC70E082E00E94731082E08093CE
S1131D601404089580E00E94060B1092140485E088
S1131D708093110408951092140485E08093110453
S1131D80089582E00E94A01081116AC08091140419
S1131D90833049F128F4813051F08230C1F058C0C9
S1131DA08530E9F180F1863009F449C051C080E002
S1131DB094E00E94120B81E00E94060B68EC70E034
S1131DC082E00E94731082E080931404089580E0FE
S1131DD00E94060B64E670E082E00E94731083E0C8
S1131DE080931404089580E094E00E94120B81E033
S1131DF00E94060B68EC70E082E00E94731084E09D
S1131E0080931404089580E00E94060B64E670E059
S1131E1082E00E94731085E080931404089580E0AA
S1131E2098E00E94120B81E00E94060B60E971E0C9
S1131E3082E00E94731086E080931404089580E089
S1131E400E94060B1092140485E0809311040895F7
S1131E5080E00E94060B1092140485E08093110424
S1131E60089582E00E94A01081116AC08091140438
S1131E70833049F128F4813051F08230C1F058C0E8
S1131E808530E9F180F1863009F449C051C080E021
S1131E9094E00E94120B81E00E94060B68EC70E053
S1131EA082E00E94731082E080931404089580E01D
S1131EB00E94060B64E670E082E00E94731083E0E7
S1131EC080931404089580E094E00E94120B81E052
S1131ED00E94060B68EC70E082E00E94731084E0BC
S1131EE080931404089580E00E94060B64E670E079
S1131EF082E00E94731085E080931404089580E0CA
S1131F0092E00E94120B60E971E082E00E9473107B
S1131F1081E00E94060B86E080931404089580E01B
S1131F200E94060B1092140485E080931104089516
S1131F3080E00E94060B1092140485E08093110443
S1131F40089582E00E94A01081116AC08091140457
S1131F50833049F128F4813051F08230C1F058C007
S1131F608530E9F180F1863009F449C051C080E040
S1131F7091E00E94120B81E00E94060B60E971E07F
S1131F8082E00E94731082E080931404089580E03C
S1131F900E94060B64E670E082E00E94731083E006
S1131FA080931404089580E890E00E94120B81E06D
S1131FB00E94060B68EC70E082E00E94731084E0DB
S1131FC080931404089580E00E94060B64E670E098
S1131FD082E00E94731085E080931404089580E8E1
S1131FE090E00E94120B68EC70E082E00E94731093
S1131FF081E00E94060B86E080931404089580E03B
S11320000E94060B1092140485E080931104089535
S113201080E00E94060B1092140485E08093110462
S1132020089580911104823089F028F4882341F0C6
S1132030813049F00895833061F0843069F0089567
S11320400E946B0E08950E94960E08950E94C10E80
S113205008950E94310F08950E94A10F089580E011
S11320600DC0E82FF0E09F01220F331FE20FF31F92
S1132070ED59FB4F1082128211828F5F873088F3F3
S1132080089560916801611127C00895822F90E03E
S1132090FC01EE0FFF1FE80FF91FED59FB4F3081D4
S11320A03130C1F4FC01EE0FFF1FE80FF91FED59A9
S11320B0FB4F418152814150510952834183452B49
S11320C049F4FC01EE0FFF1F8E0F9F1FFC01ED5919
S11320D0FB4F10822F5F01C020E02730B8F261501F
S11320E06093680108958730D8F46115710559F437
S11320F090E0FC01EE0FFF1F8E0F9F1FFC01ED59B6
S1132100FB4F1082089590E0FC01EE0FFF1F8E0F2D
S11321109F1FFC01ED59FB4F7283618381E0808333
S11321200895873060F490E0FC01EE0FFF1F8E0FDE
S11321309F1FFC01ED59FB4F1282118210820895FA
S113214090E0FC01EE0FFF1F8E0F9F1FFC01ED5965
S1132150FB4F808108951F920F920FB60F921124A6
S11321608F939F938FE09FEF9093850080938400DB
S1132170809168018F5F809368019F918F910F9088
S11321800FBE0F901F90189597FB072E16F400941E
S113219007D077FD09D00E94ED1007FC05D03EF46E
S11321A0909581959F4F0895709561957F4F0895FF
S11321B0EE0FFF1F0590F491E02D0994A29FB0014A
S11321C0B39FC001A39F700D811D1124911DB29F67
S11321D0700D811D1124911D0895AA1BBB1B51E193
S11321E007C0AA1FBB1FA617B70710F0A61BB70B83
S11321F0881F991F5A95A9F780959095BC01CD0128
S10922000895F894FFCFDD
S113220623002600290001010104083F008D857E74
S1132216767069635E58534F4A4642FCEEE0D4C872
S1132226BDB2A89E958D00040404040404040404A9
S1132236040404040403030303030303030303035F
S1132246010204081020000000000001FEFDFBF757
S1132256EFDFBF7F01020408102040800001020363
S10B2266040500000000000162
S9030000FC
